:020000040800F2
:1000000000800120C1070008150700081B07000831
:1000100021070008270700082D070008000000003E
:10002000000000000000000000000000A1450008E2
:100030003307000800000000E147000849480008B5
:10004000110800081108000811080008110800082C
:10005000110800081108000811080008110800081C
:10006000110800081108000811080008110800080C
:1000700011080008110800081108000811080008FC
:1000800011080008110800081108000811080008EC
:1000900011080008110800081108000811080008DC
:1000A000110800084107000811080008110800089D
:1000B00011080008110800081108000811080008BC
:1000C00011080008110800081108000811080008AC
:1000D000110800081108000811080008110800089C
:1000E000110800081108000811080008110800088C
:1000F000110800081108000811080008110800087C
:10010000110800081108000811080008110800086B
:10011000110800081108000811080008110800085B
:10012000110800081108000811080008110800084B
:10013000110800081108000811080008110800083B
:10014000110800081108000811080008110800082B
:10015000110800081108000811080008110800081B
:10016000110800081108000811080008110800080B
:10017000110800081108000811080008000000001C
:08018000110800081108000835
:1001900010B5054C237833B9044B13B10448AFF3C1
:1001A00000800123237010BD10000020000000001B
:1001B000E84C000808B5034B1BB103490348AFF3F3
:1001C000008008BD0000000014000020E84C00087A
:1001D00080B485B000AFF860B9607A60FB68074A08
:1001E0001A60BB68064A1A607B6880221A6000BFEA
:1001F0001437BD465DF8047B704700BF2C0000201B
:1002000080000020B0B58EB000AF01F065F800F0BE
:1002100033F800F09DF800F0FDFA134B07F11C04D1
:100220001D460FCD0FC495E8070084E8070007F1CD
:100230001C030021184603F02AFB02460B4B1A60F0
:100240000B4B3C461D460FCD0FC495E8070084E8D4
:1002500007003B460021184603F019FB0246054BF8
:100260001A6003F00DFBFEE7084D0008C40F0020E4
:100270002C4D0008840F002080B5B8B000AF07F106
:100280009C0344220021184604F026FD07F1880350
:1002900000221A605A609A60DA601A613B4688222E
:1002A0000021184604F018FD1823C7F89C300123DC
:1002B000C7F8B0300123C7F8B4300023C7F8B8300E
:1002C0006023C7F8BC300023C7F8C43007F19C0393
:1002D000184601F035FD0346002B01D000F018F957
:1002E0000F23C7F888300023C7F88C300023C7F8E5
:1002F00090300023C7F894300023C7F8983007F1F6
:1003000088030021184602F001F90346002B01D0B2
:1003100000F0FEF84FF400333B604FF40073C7F871
:1003200084303B46184602F011FB0346002B01D0F7
:1003300000F0EEF84FF4007001F0ACFC0346002B27
:1003400001D000F0E5F800BFE037BD4680BD0000F9
:1003500080B58AB000AF07F1140300221A605A601A
:100360009A60DA601A61204BDB6C1F4A43F080030D
:10037000D3641D4BDB6C03F080033B613B691A4B7C
:10038000DB6C194A43F00403D364174BDB6C03F0B6
:100390000403FB60FB68144BDB6C134A43F001035E
:1003A000D364114BDB6C03F00103BB60BB680E4BE5
:1003B000DB6C0D4A43F00203D3640B4BDB6C03F0A0
:1003C00002037B607B6801237B610023BB61002308
:1003D000FB6107F1140319464FF0904001F0C0F89B
:1003E00000BF2837BD4680BD0010024080B588B0F0
:1003F00000AF7860184A07F10C0307CA03C31A80DC
:100400000023FB6124E00023BB611BE007F10C0229
:10041000FB69D01800230022002100F035FA07F113
:100420000C02BB69D01801230022002100F02CFA35
:100430000A4801F0C6FB4FF47A7003F074FABB6906
:100440000133BB61BB69092BE0DDFB690133FB6153
:10045000FB69052BD7DDD3E7484D0008880F002046
:1004600080B588B000AF78600023FB610023BB61DA
:100470001C4A07F10C0307CA03C31A8001214FF07D
:10048000904001F015FA0346002B11D0FB69082BB0
:1004900003DCFB690133FB610AE00023FB61BB69FC
:1004A000042B03DCBB690133BB6101E00023BB61AA
:1004B00007F10C02FB69D01804230022002100F090
:1004C000E3F907F10C02BB69D018032300220021D5
:1004D00000F0DAF9044801F074FBC82003F023FAB5
:1004E000CCE700BF484D0008880F002080B582B0DF
:1004F00000AF78607B681B68044A934201D100F02A
:100500000BFF00BF0837BD4680BD00BF002C014077
:1005100080B400AF72B6FEE780B582B000AF114B79
:100520001B6E104A43F0010313660E4B1B6E03F063
:1005300001037B607B680B4B9B6D0A4A43F0805341
:100540009365084B9B6D03F080533B603B68002232
:100550000F216FF0010000F0D9FF00BF0837BD4642
:1005600080BD00BF0010024080B58CB000AF786045
:1005700007F11C0300221A605A609A60DA601A615F
:100580007B681B68344A934262D1344B9B6D334A7B
:1005900043F400739365314B9B6D03F40073BB61AF
:1005A000BB692E4BDB6C2D4A43F00403D3642B4B09
:1005B000DB6C03F004037B617B69284BDB6C274A0F
:1005C00043F00103D364254BDB6C03F001033B6173
:1005D0003B69224BDB6C214A43F00203D3641F4B7F
:1005E000DB6C03F00203FB60FB683F23FB6102232B
:1005F0003B6200237B620023BB620B23FB6207F19B
:100600001C031946164800F0ABFF48F2CE73FB619D
:1006100002233B6200237B620023BB620B23FB624D
:1006200007F11C0319464FF0904000F099FF4FF678
:10063000BB73FB6102233B6200237B620023BB622E
:100640000B23FB6207F11C031946064800F088FFE4
:1006500000BF3037BD4680BD00240040001002407E
:10066000000800480004004880B58CB000AF7860F6
:100670000023FB620023BB6200227968192000F08E
:1006800045FF192000F05EFF1E4B1B6E1D4A43F410
:10069000006313661B4B1B6E03F40063FB60FB6877
:1006A00007F1100207F114031146184602F0BCF8D6
:1006B00002F0A4F8F862FB6A134AA2FB03239B0C26
:1006C000013BBB62114B124A1A60104B40F2E732F9
:1006D000DA600E4ABB6A53600C4B00221A610B4B66
:1006E00000229A60094802F0E1FD0346002B04D184
:1006F000064802F03DFE034600E00123184630376D
:10070000BD4680BD0010024083DE1B43C80F0020A1
:10071000002C014080B400AFFEE780B400AFFEE7DC
:1007200080B400AFFEE780B400AFFEE780B400AF56
:10073000FEE780B400AF00BFBD465DF8047B7047A4
:1007400080B500AF024802F083FE00BF80BD00BF4D
:10075000C80F002080B400AF174BD3F88830164A7A
:1007600043F47003C2F88830144B1B68134A43F0FB
:1007700001031360114B00229A60104B1B680F4A53
:1007800023F0A85323F4102313600C4B4FF4805232
:10079000DA600A4B1B68094A23F480231360074B75
:1007A00000229A61044B4FF000629A6000BFBD4680
:1007B0005DF8047B704700BF00ED00E000100240D0
:1007C000DFF834D0FFF7C6FF002103E00B4B5B5886
:1007D000435004310A480B4B42189A42F6D30A4A56
:1007E00002E0002342F8043B084B9A42F9D304F09C
:1007F0004FFAFFF707FDFEE700800120F44D0008E7
:100800000000002010000020100000202810002010
:10081000FEE7000080B500AF194B1A4A1A60184B6A
:1008200000225A60164B4FF470129A60144B0C223F
:10083000DA60134B40221A61114B00225A61104BAF
:100840004FF4A0529A610E4B0022DA610C4B402209
:100850001A620B4B00225A62094B00229A62084B23
:100860004FF48042DA62064B00221A63044800F01B
:1008700031F8034801F034F800F022F800BF80BDE1
:10088000880F00200024004080B582B000AF78605F
:10089000084611461A460346FB700B46BB701346CA
:1008A0007B707B78BA78F978786800F095F903481E
:1008B00001F087F900BF0837BD4680BD880F0020D2
:1008C00080B500AF024801F026F900BF80BD00BF2F
:1008D000880F002080B5C0B000AF786007F1EC034E
:1008E00000221A605A609A60DA601A6107F1A80360
:1008F00044220021184604F0EFF907F12003882272
:100900000021184604F0E8F9514B9B6D504A43F022
:10091000805393654E4B9B6D03F08053FB61FB69E5
:100920000423C7F8A8300023C7F8D0300123C7F844
:10093000B03007F1A803184601F002FA0346002B75
:1009400000D0FEE74FF400333B624FF48073C7F8EA
:10095000A43007F12003184601F0F8FF3C4BDB6C94
:100960003B4A43F00103D364394BDB6C03F00103D2
:10097000BB61BB69364BDB6C354A43F00203D36481
:10098000334BDB6C03F002037B617B69304BDB6C28
:100990002F4A43F00403D3642D4BDB6C03F00403B4
:1009A0003B613B692A4BDB6C294A43F00803D36463
:1009B000274BDB6C03F00803FB60FB6848F2C07355
:1009C000C7F8EC300223C7F8F0300023C7F8F43042
:1009D0000323C7F8F8300B23C7F8FC3007F1EC030A
:1009E00019464FF0904000F0BBFD4FF23323C7F89B
:1009F000EC3007F1EC031946164800F0B1FD4FF456
:100A0000FC73C7F8EC3007F1EC031946124800F00C
:100A1000A7FD4FF47F43C7F8EC3007F1EC0319460C
:100A20000E4800F09DFD022000F096FC084B9B6DE7
:100A3000074A43F400739365054B9B6D03F4007301
:100A4000BB60BB6800BF07F58077BD4680BD00BFB7
:100A5000001002400004004800080048000C004854
:100A600080B485B000AF78600B46FB701346BB7056
:100A70000023FB8100237B7300233B737B681B787F
:100A80002D2B3CD02D2B0FDC282B26D0282B04DC43
:100A9000202B1BD0252B3DD04CE02A2B19D02A2B04
:100AA0001EDB2B2B2FD045E0642B1CD0642B06DCE7
:100AB0002F2B2CD02F2B3DDB392B3BDC32E06E2B48
:100AC00019D0FF2B2AD06D2B11D033E00023FB81EE
:100AD0004FE04AF2DD03FB814BE02823FB8148E035
:100AE0001123FB8145E04FF47343FB8141E04BF25E
:100AF0001023FB813DE042F21023FB8139E04FF4EB
:100B00002043FB8135E04AF21403FB8131E0C0232E
:100B1000FB812EE04FF43343FB812AE04FF6DD7377
:100B2000FB8126E07B681B78303B284A32F8133083
:100B3000FB811EE07B681B785A2B0AD87B681B78E8
:100B4000402B06D97B681B78413B214A32F8133091
:100B5000FB817B681B787A2B0AD87B681B78602B1B
:100B600006D97B681B78613B194A32F81330FB8148
:100B700000BFFB78012B03D1FB8943F00203FB810B
:100B8000BB78012B03D1FB8943F02003FB810C23AD
:100B90007B7300233B7310E0FA897B7B42FA03F3FB
:100BA0001A463B7B02F00F020A4941F823207B7B67
:100BB000043B7B733B7B01333B733B7B032BEBD9C8
:100BC00000BF1437BD465DF8047B7047D84D000860
:100BD000A44D00081410002080B584B000AF7860E8
:100BE000084611461A460346FB700B46BB70134677
:100BF0007B700023FB60BA78FB7819467868FFF7B2
:100C00002FFF7B78052B00F25B8301A252F823F0C3
:100C1000290C0008230D00083D0E00083F0F0008B6
:100C20006D100008B7110008804B1B681B0103F012
:100C300010027E4B1B685B08DB0503F400031A43BC
:100C40007A4B1B689B089B0503F480031A43774B80
:100C50001B6803F008031343FB60FB68744A002120
:100C6000744800F0FDFE714B5B681B0103F010023D
:100C70006E4B5B685B08DB0503F400031A436B4BA8
:100C80005B689B089B0503F480031A43674B5B6812
:100C900003F008031343FB60FB68654A02216548C3
:100CA00000F0DEFE614B9B681B0103F010025F4BFE
:100CB0009B685B08DB0503F400031A435B4B9B68EE
:100CC0009B089B0503F480031A43584B9B6803F071
:100CD00008031343FB60FB68554A0421554800F0A4
:100CE000BFFE524BDB681B0103F010024F4BDB6869
:100CF0005B08DB0503F400031A434C4BDB689B08DD
:100D00009B0503F480031A43484BDB6803F0080398
:100D10001343FB60FB68464A0621464800F0A0FEEC
:100D2000CFE2424B1B689B0103F040023F4B1B6824
:100D30005B085B0303F400531A433C4B1B689B089E
:100D40001B0303F480531A43384B1B68DB085B0119
:100D500003F020031343FB60FB68374A002135484A
:100D600000F07EFE314B5B689B0103F040022F4B8D
:100D70005B685B085B0303F400531A432B4B5B680F
:100D80009B081B0303F480531A43284B5B68DB0862
:100D90005B0103F020031343FB60FB68264A02213A
:100DA000244800F05DFE214B9B689B0103F040024C
:100DB0001E4B9B685B085B0303F400531A431B4BF9
:100DC0009B689B081B0303F480531A43174B9B68D3
:100DD000DB085B0103F020031343FB60FB68164A4A
:100DE0000421144800F03CFE104BDB689B0103F02B
:100DF00040020E4BDB685B085B0303F400531A43AD
:100E00000A4BDB689B081B0303F480531A43074B10
:100E1000DB68DB085B0103F020031343FB60FB6826
:100E2000054A0621034800F01BFE4AE21410002088
:100E3000E7FF3FFF880F00209FCFFFFF884B1B6815
:100E4000DB039AB2864B1B685B085B0703F0005319
:100E50001A43834B1B689B081B0703F080531A43FC
:100E60007F4B1B68DB089B0303F480431343FB6049
:100E7000FB687C4A00217C4800F0F2FD784B5B68FF
:100E8000DB039AB2764B5B685B085B0703F00053A9
:100E90001A43734B5B689B081B0703F080531A438C
:100EA0006F4B5B68DB089B0303F480431343FB60D9
:100EB000FB686C4A02216C4800F0D2FD684B9B68CD
:100EC000DB039AB2664B9B685B085B0703F0005339
:100ED0001A43634B9B689B081B0703F080531A431C
:100EE0005F4B9B68DB089B0303F480431343FB6069
:100EF000FB685C4A04215C4800F0B2FD584BDB689B
:100F0000DB039AB2564BDB685B085B0703F00053C8
:100F10001A43534BDB689B081B0703F080531A43AB
:100F20004F4BDB68DB089B0303F480431343FB60F8
:100F3000FB684C4A06214C4800F092FDC1E1484B49
:100F40001B68DA07464B1B68DB089B0703F08043EE
:100F50001343FB60FB686FF040420021424800F001
:100F60007FFD3F4B1B6803F002023D4B1B689B0853
:100F700003F001031343FB60FB686FF003020121E0
:100F8000394800F06DFD364B5B68DA07344B5B681F
:100F9000DB089B0703F080431343FB60FB686FF0A3
:100FA00040420221304800F05BFD2D4B5B6803F0AE
:100FB00002022B4B5B689B0803F001031343FB60A9
:100FC000FB686FF003020321274800F049FD244B22
:100FD0009B68DA07224B9B68DB089B0703F0804382
:100FE0001343FB60FB686FF0404204211E4800F091
:100FF00037FD1B4B9B6803F00202194B9B689B0853
:1010000003F001031343FB60FB686FF0030205214B
:10101000154800F025FD124BDB68DA07104BDB6842
:10102000DB089B0703F080431343FB60FB686FF012
:10103000404206210C4800F013FD094BDB6803F029
:101040000202074BDB689B0803F001031343FB60BC
:10105000FB686FF003020721034800F001FD30E157
:1010600014100020FF3FFFCF880F0020974B1B6814
:101070005B085B0603F00072944B1B689B081B0621
:1010800003F080731343FB60FB686FF04072002134
:101090008F4800F0E5FC8D4B1B68DB0003F0080275
:1010A0008A4B1B68DB089B0003F004031343FB60BF
:1010B000FB686FF00C020121854800F0D1FC834BE6
:1010C0005B685B085B0603F00072804B5B689B0803
:1010D0001B0603F080731343FB60FB686FF04072E4
:1010E00002217B4800F0BCFC784B5B68DB0003F01E
:1010F0000802764B5B68DB089B0003F00403134394
:10110000FB60FB686FF00C020321714800F0A8FC43
:101110006E4B9B685B085B0603F000726B4B9B6831
:101120009B081B0603F080731343FB60FB686FF0A2
:1011300040720421664800F093FC644B9B68DB001E
:1011400003F00802614B9B68DB089B0003F004037B
:101150001343FB60FB686FF00C0205215C4800F054
:101160007FFC5A4BDB685B085B0603F00072574B51
:10117000DB689B081B0603F080731343FB60FB686E
:101180006FF040720621524800F06AFC4F4BDB685A
:10119000DB0003F008024D4BDB68DB089B0003F02B
:1011A00004031343FB60FB686FF00C0207214848FF
:1011B00000F056FC85E0454B1B685B0403F40032ED
:1011C000424B1B685B081B0203F480731A433F4BBE
:1011D0001B689B085B0203F400731A433B4B1B68BC
:1011E000DB089B0603F080631343FB60FB68394A0E
:1011F0000021374800F034FC344B5B685B0403F497
:101200000032324B5B685B081B0203F480731A43A5
:101210002E4B5B689B085B0203F400731A432B4B55
:101220005B68DB089B0603F080631343FB60FB688D
:10123000284A0221264800F013FC244B9B685B04DB
:1012400003F40032214B9B685B081B0203F480739C
:101250001A431E4B9B689B085B0203F400731A43FE
:101260001A4B9B68DB089B0603F080631343FB600B
:10127000FB68184A0421164800F0F2FB134BDB68A8
:101280005B0403F40032114BDB685B081B0203F4C0
:1012900080731A430D4BDB689B085B0203F40073F9
:1012A0001A430A4BDB68DB089B0603F08063134399
:1012B000FB60FB68074A0621054800F0D1FB00E00F
:1012C00000BF00BF1037BD4680BD00BF1410002016
:1012D000880F0020FFFCFDFB80B582B000AF00232B
:1012E000FB710C4B1B680B4A43F4807313600320A3
:1012F00000F001F90020FFF7B7F90346002B02D0F8
:101300000123FB7101E0FFF707F9FB791846083765
:10131000BD4680BD0020024080B400AF064B1B7864
:101320001A46064B1B681344044A136000BFBD46AF
:101330005DF8047B704700BF0800002024100020E7
:1013400080B400AF034B1B681846BD465DF8047BB4
:10135000704700BF2410002080B584B000AF7860D3
:10136000FFF7EEFFB8607B68FB60FB68B3F1FF3FFF
:1013700005D0094B1B781A46FB681344FB6000BF7D
:10138000FFF7DEFF0246BB68D31AFA689A42F7D825
:1013900000BF1037BD4680BD0800002080B485B076
:1013A00000AF78607B6803F00703FB600C4BDB68E1
:1013B000BB60BA684FF6FF031340BB60FB681A02BC
:1013C000BB68134343F0BF6343F40033BB60044A7C
:1013D000BB68D36000BF1437BD465DF8047B70471F
:1013E00000ED00E080B400AF044BDB681B0A03F0A3
:1013F00007031846BD465DF8047B704700ED00E02A
:1014000080B483B000AF0346FB7197F90730002B1F
:101410000BDBFB7903F01F02074997F907305B09E3
:10142000012000FA02F241F8232000BF0C37BD462C
:101430005DF8047B704700BF00E100E080B483B03A
:1014400000AF03463960FB7197F90730002B0ADBC8
:101450003B68DAB20C4997F907301201D2B20B445B
:1014600083F800230AE03B68DAB20849FB7903F00D
:101470000F03043B1201D2B20B441A7600BF0C37A3
:10148000BD465DF8047B704700E100E000ED00E040
:1014900080B489B000AFF860B9607A60FB6803F08F
:1014A0000703FB61FB69C3F10703042B28BF042377
:1014B000BB61FB690433062B02D9FB69033B00E0E7
:1014C00000237B614FF0FF32BB6902FA03F3DA437A
:1014D000BB681A407B699A404FF0FF317B6901FA83
:1014E00003F3D9437B680B40134318462437BD46AA
:1014F0005DF8047B704780B582B000AF7860786893
:10150000FFF74CFF00BF0837BD4680BD80B586B0F1
:1015100000AF0346B9607A60FB7300237B61FFF77D
:1015200061FF78617A68B9687869FFF7B1FF0246B0
:1015300097F90F3011461846FFF780FF00BF1837A4
:10154000BD4680BD80B582B000AF0346FB7197F900
:1015500007301846FFF754FF00BF0837BD4680BD6F
:1015600080B487B000AF7860396000237B617FE191
:101570003B681A6801217B6901FA03F31340FB60A1
:10158000FB68002B00F071813B685B68012B0BD07E
:101590003B685B68022B07D03B685B68112B03D06C
:1015A0003B685B68122B30D17B689B683B617B6931
:1015B0005B00032202FA03F3DB433A6913403B6109
:1015C0003B68DA687B695B0002FA03F33A6913430C
:1015D0003B617B683A699A607B685B683B6101228A
:1015E0007B6902FA03F3DB433A6913403B613B68D2
:1015F0005B681B0903F001027B6902FA03F33A6995
:1016000013433B617B683A695A603B685B6803F04F
:101610000303032B18D17B68DB6A3B6101227B69E2
:1016200002FA03F3DB433A6913403B613B685B68B2
:10163000DB0803F001027B6902FA03F33A69134302
:101640003B617B683A69DA627B68DB683B617B6996
:101650005B00032202FA03F3DB433A6913403B6168
:101660003B689A687B695B0002FA03F33A691343AB
:101670003B617B683A69DA603B685B68022B03D0A8
:101680003B685B68122B23D17B69DA087B680832E0
:1016900053F822303B617B6903F007039B000F2264
:1016A00002FA03F3DB433A6913403B613B681A6972
:1016B0007B6903F007039B0002FA03F33A691343C3
:1016C0003B617B69DA087B680832396943F822108C
:1016D0007B681B683B617B695B00032202FA03F3B2
:1016E000DB433A6913403B613B685B6803F00302EC
:1016F0007B695B0002FA03F33A6913433B617B6841
:101700003A691A603B685B6803F08053002B00F075
:10171000AC805E4B1B6E5D4A43F0010313665B4B6E
:101720001B6E03F00103BB60BB68594A7B699B08D1
:10173000023352F823303B617B6903F003039B00C3
:101740000F2202FA03F3DB433A6913403B617B68E3
:10175000B3F1904F25D07B684E4A93421FD07B68EF
:101760004D4A934219D07B684C4A934213D07B6810
:101770004B4A93420DD07B684A4A934207D07B681C
:10178000494A934201D106230CE007230AE00523CE
:1017900008E0042306E0032304E0022302E001231F
:1017A00000E000237A6902F00302920093403A6954
:1017B00013433B6136497B699B0802333A6941F820
:1017C00023203A4B1B683B61FB68DB433A691340BB
:1017D0003B613B685B6803F48033002B03D03A69BC
:1017E000FB6813433B61314A3B6913602F4B5B68D5
:1017F0003B61FB68DB433A6913403B613B685B68D4
:1018000003F40033002B03D03A69FB6813433B61B8
:10181000264A3B695360254B9B683B61FB68DB4371
:101820003A6913403B613B685B6803F48013002B0B
:1018300003D03A69FB6813433B611C4A3B699360E0
:101840001A4BDB683B61FB68DB433A6913403B6141
:101850003B685B6803F40013002B03D03A69FB6814
:1018600013433B61114A3B69D3607B6901337B6160
:101870003B681A687B6922FA03F3002B7FF478AE89
:1018800000BF1C37BD465DF8047B70470010024066
:10189000000001400004004800080048000C004817
:1018A00000100048001400480018004800040140DF
:1018B00080B485B000AF78600B467B807B681A6986
:1018C0007B881340002B02D00123FB7301E000232F
:1018D000FB73FB7B18461437BD465DF8047B7047ED
:1018E00080B586B000AF78607B68002B01D1012302
:1018F000AFE07B6893F83530DBB2002B06D17B6814
:10190000002283F834207868FEF72EFE7B680222DE
:1019100083F835207B681B681A687B681B6822F097
:1019200001021A6000237B610AE07B681A687B6908
:1019300004339B00134400225A607B6901337B61AE
:101940007B690F2BF1D97B681B689A687B681B68E1
:1019500042F004029A607B681B685A683F4B134050
:101960007A6851687A68926811437A68926A11437A
:101970007A68D26A11437A68D26911437A68126A26
:1019800011437A68926911437A68526A11437A68FE
:1019900012680B435360786800F04CF90346FB74FF
:1019A000FB7C002B01D0FB7C53E07B681B681B6831
:1019B00023F0FE017B68DA687B681B691A437B6849
:1019C0005B691A437B681B6B1A437B681B680A437D
:1019D0001A607B681B681A687B681B6842F001020A
:1019E0001A60FFF7ADFCF8600CE0FFF7A9FC0246B7
:1019F000FB68D31AB3F57A7F04D97B6808229A630F
:101A0000032326E07B681B689B6803F00103012B1E
:101A1000EBD1FFF795FCF8600CE0FFF791FC024674
:101A2000FB68D31AB3F57A7F04D97B6810229A63D6
:101A300003230EE07B681B689B6803F01003102BE8
:101A4000EBD17B6800229A637B68012283F8352002
:101A5000FB7C18461837BD4680BD00BF0E0000FC59
:101A600080B586B000AFF860B9607A603B60FB6813
:101A700093F83530FB75FB7D012B02D0FB7D022BEB
:101A800044D1FB6893F83530DBB2012B2AD1FB68D7
:101A900093F83430012B01D1022338E0FB68012296
:101AA00083F83420FB68022283F83520FFF748FCD6
:101AB000386110E0FFF744FC02463B69D31AB3F5E6
:101AC0007A7F08D9FB6802229A63FB68002283F8B8
:101AD000342003231BE0FB681B689B6803F00403AE
:101AE000042BE7D0FB681A68BB6804339B001344DF
:101AF0005A687B681A40FB6819683B681A43BB68E0
:101B000004339B000B445A60002300E00123184675
:101B10001837BD4680BD80B586B000AF7860012320
:101B2000FB747B6893F83530BB74BB7C012B02D00F
:101B3000BB7C022B40D17B6893F83430012B01D160
:101B400002233AE07B68012283F834207B6802227A
:101B500083F83520FFF7F4FBF86010E0FFF7F0FBA7
:101B60000246FB68D31AB3F57A7F08D97B68022254
:101B70009A637B68002283F8342003231DE07B688E
:101B80001B689B6803F00403042BE7D000237B61F0
:101B90000AE07B681A687B6904339B0013440022C7
:101BA0005A607B6901337B617B690F2BF1D97868BF
:101BB00000F007F80346FB74FB7C18461837BD4657
:101BC00080BD80B584B000AF78607B681B68082258
:101BD000DA607B681B689A687B681B6842F00402C5
:101BE0009A60FFF7ADFBF86010E0FFF7A9FB024633
:101BF000FB68D31AB3F57A7F08D97B6804229A630D
:101C00007B68002283F8342003230FE07B681B6885
:101C10009B6803F00803082BE7D17B68012283F857
:101C200035207B68002283F83420002318461037C3
:101C3000BD4680BD80B584B000AF7860FFF780FB03
:101C4000F8600CE0FFF77CFB0246FB68D31AB3F5A3
:101C50007A7F04D97B6801229A63032307E07B68BB
:101C60001B689B6803F02003202BEBD10023184650
:101C70001037BD4680BD000080B400AF044B1B6828
:101C800003F4C0631846BD465DF8047B704700BF8F
:101C90000070004080B485B000AF78607B68B3F519
:101CA000007F30D1234B1B6803F4C063B3F5007F82
:101CB00038D0204B1B6823F4C0631E4A43F40073E2
:101CC00013601D4B1B68322202FB03F31B4AA2FB6D
:101CD00003239B0C0133FB6002E0FB68013BFB60CC
:101CE000144B5B6903F48063B3F5806F02D1FB682A
:101CF000002BF2D10F4B5B6903F48063B3F5806F67
:101D000010D103230FE00B4B1B6803F4C063B3F542
:101D1000806F07D0074B1B6823F4C063054A43F468
:101D200080631360002318461437BD465DF8047BBA
:101D3000704700BF007000400000002083DE1B439E
:101D400080B588B000AF78607B68002B01D101239B
:101D5000D4E3A14B9B6803F00C03BB619E4BDB6893
:101D600003F003037B617B681B6803F01003002B07
:101D700000F0E480BB69002B07D0BB690C2B40F05E
:101D80008B807B69012B40F08780934B1B6803F0AD
:101D90000203002B05D07B689B69002B01D1012336
:101DA000ACE37B681A6A8C4B1B6803F00803002BBA
:101DB00004D0894B1B6803F0F00305E0864BD3F891
:101DC00094301B0903F0F003934223D27B681B6A13
:101DD000184600F05BFD0346002B01D001238DE384
:101DE0007D4B1B687C4A43F0080313607A4B1B68E9
:101DF00023F0F0027B681B6A774913430B60764B34
:101E00005B6823F47F427B68DB691B0272491343E2
:101E10004B6025E0704B1B686F4A43F0080313606A
:101E20006D4B1B6823F0F0027B681B6A6A49134301
:101E30000B60694B5B6823F47F427B68DB691B02A4
:101E4000654913434B60BB69002B09D17B681B6A52
:101E5000184600F01BFD0346002B01D001234DE383
:101E600000F036FC01465C4B9B681B0903F00F0336
:101E70005A4AD35C03F01F0321FA03F3584A136054
:101E8000584B1B681846FEF7EFFB0346FB73FB7BC2
:101E9000002B52D0FB7B31E37B689B69002B32D057
:101EA0004D4B1B684C4A43F001031360FFF748FA9F
:101EB000386108E0FFF744FA02463B69D31A022B67
:101EC00001D903231AE3444B1B6803F00203002BE0
:101ED000F0D0414B1B68404A43F0080313603E4B6F
:101EE0001B6823F0F0027B681B6A3B4913430B60BD
:101EF000394B5B6823F47F427B68DB691B02364900
:101F000013434B601AE0344B1B68334A23F0010340
:101F10001360FFF715FA386108E0FFF711FA02467F
:101F20003B69D31A022B01D90323E7E22A4B1B6832
:101F300003F00203002BF0D100E000BF7B681B68B8
:101F400003F00103002B74D0BB69082B05D0BB69DB
:101F50000C2B0ED17B69032B0BD11F4B1B6803F499
:101F60000033002B64D07B685B68002B60D10123B9
:101F7000C4E27B685B68B3F5803F06D1164B1B68F3
:101F8000154A43F4803313601DE07B685B68B3F54A
:101F9000A02F0CD1104B1B680F4A43F48023136011
:101FA0000D4B1B680C4A43F4803313600BE00A4B63
:101FB0001B68094A23F480331360074B1B68064AE9
:101FC00023F4802313607B685B68002B1CD0FFF731
:101FD000B7F9386111E000BF001002405C4D000805
:101FE0000000002004000020FFF7AAF902463B6928
:101FF000D31A642B01D9032380E2AF4B1B6803F48F
:102000000033002BF0D014E0FFF79AF9386108E0B4
:10201000FFF796F902463B69D31A642B01D90323D3
:102020006CE2A54B1B6803F40033002BF0D100E0F9
:1020300000BF7B681B6803F00203002B60D0BB6904
:10204000042B05D0BB690C2B19D17B69022B16D14F
:10205000994B1B6803F48063002B05D07B68DB6819
:10206000002B01D1012349E2934B5B6823F0F85226
:102070007B681B691B06904913434B6040E07B68FB
:10208000DB68002B23D08C4B1B688B4A43F4807396
:102090001360FFF755F9386108E0FFF751F9024680
:1020A0003B69D31A022B01D9032327E2824B1B6819
:1020B00003F48063002BF0D07F4B5B6823F0F85271
:1020C0007B681B691B067C4913434B6018E07A4B05
:1020D0001B68794A23F480731360FFF731F9386184
:1020E00008E0FFF72DF902463B69D31A022B01D90C
:1020F000032303E2704B1B6803F48063002BF0D1D1
:102100007B681B6803F00803002B3CD07B685B698D
:10211000002B1CD0684BD3F89430674A43F001037E
:10212000C2F89430FFF70CF9386108E0FFF708F9BE
:1021300002463B69D31A022B01D90323DEE15E4B31
:10214000D3F8943003F00203002BEFD01BE05A4B7E
:10215000D3F89430584A23F00103C2F89430FFF7C3
:10216000EFF8386108E0FFF7EBF802463B69D31A55
:10217000022B01D90323C1E14F4BD3F8943003F074
:102180000203002BEFD17B681B6803F00403002BD4
:1021900000F0A6800023FB77474B9B6D03F0805334
:1021A000002B0DD1444B9B6D434A43F08053936504
:1021B000414B9B6D03F08053BB60BB680123FB77F1
:1021C0003E4B1B6803F48073002B18D13B4B1B68FC
:1021D0003A4A43F480731360FFF7B2F8386108E0BD
:1021E000FFF7AEF802463B69D31A022B01D903234D
:1021F00084E1324B1B6803F48073002BF0D07B68C2
:102200009B68012B08D12C4BD3F890302A4A43F01D
:102210000103C2F8903024E07B689B68052B10D145
:10222000254BD3F89030244A43F00403C2F8903091
:10223000214BD3F89030204A43F00103C2F890308C
:102240000FE01D4BD3F890301B4A23F00103C2F876
:102250009030194BD3F89030174A23F00403C2F89A
:1022600090307B689B68002B16D0FFF769F83861C7
:102270000AE0FFF765F802463B69D31A41F288325B
:10228000934201D9032339E10B4BD3F8903003F08B
:102290000203002BEDD01AE0FFF752F838610FE08F
:1022A000FFF74EF802463B69D31A41F28832934257
:1022B00006D9032322E100BF001002400070004055
:1022C000904BD3F8903003F00203002BE8D1FB7F52
:1022D000012B05D18B4B9B6D8A4A23F0805393656C
:1022E0007B689B6A002B00F008817B689B6A022B4D
:1022F00040F0D080834BDB687B617B6903F0030295
:102300007B68DB6A9A4230D17B6903F070027B689C
:102310001B6B013B1B019A4227D17B6903F4FE42F0
:102320007B685B6B1B029A421FD17B6903F400330D
:102330007A68926B072A14BF01220022D2B293421C
:1023400013D17B6903F4C0027B68DB6B5B08013B44
:102350005B059A4209D17B6903F0C0627B681B6C04
:102360005B08013B5B069A426ED0BB690C2B69D0BF
:10237000644B1B6803F08063002B05D1614B1B6825
:1023800003F08053002B01D00123B7E05D4B1B68A5
:102390005C4A23F080731360FEF7D2FF386108E0D7
:1023A000FEF7CEFF02463B69D31A022B01D9032365
:1023B000A4E0544B1B6803F00073002BF0D1514B89
:1023C000DA68514B13407A68D16A7A68126B013A25
:1023D000120111437A68526B120211437A68D26B70
:1023E0005208013A520511437A68126C5208013AB8
:1023F000520611437A68926B120952040A4341490A
:102400001343CB603F4B1B683E4A43F0807313601D
:102410003C4BDB683B4A43F08073D360FEF790FF90
:10242000386108E0FEF78CFF02463B69D31A022BA5
:1024300001D9032362E0334B1B6803F00073002BC8
:10244000F0D05AE0012359E02E4B1B6803F00073D3
:10245000002B52D12B4B1B682A4A43F08073136028
:10246000284BDB68274A43F08073D360FEF768FF90
:10247000386108E0FEF764FF02463B69D31A022B7D
:1024800001D903233AE01F4B1B6803F00073002BB4
:10249000F0D032E0BB690C2B2DD01A4B1B68194AC7
:1024A00023F080731360174B1B6803F02053002B3D
:1024B00005D1144BDB68134A23F00303D360114B9F
:1024C000DB68104A23F0887323F48033D360FEF76F
:1024D00037FF386108E0FEF733FF02463B69D31A45
:1024E000022B01D9032309E0064B1B6803F000739C
:1024F000002BF0D101E0012300E000231846203733
:10250000BD4680BD001002408C809DF980B584B02E
:1025100000AF786039607B68002B01D10123C8E0EF
:10252000664B1B6803F007033A689A4210D9634B65
:102530001B6823F0070261493B6813430B605F4B44
:102540001B6803F007033A689A4201D00123B0E008
:102550007B681B6803F00103002B4CD07B685B6831
:10256000032B07D1564B1B6803F00073002B21D1BE
:1025700001239EE07B685B68022B07D1504B1B68F0
:1025800003F40033002B15D1012392E07B685B68D4
:10259000002B07D14A4B1B6803F00203002B09D123
:1025A000012386E0464B1B6803F48063002B01D1B6
:1025B00001237EE0424B9B6823F003027B685B684B
:1025C0003F4913438B60FEF7BBFEF8600AE0FEF75D
:1025D000B7FE0246FB68D31A41F28832934201D912
:1025E000032366E0364B9B6803F00C027B685B6854
:1025F0009B009A42EBD17B681B6803F00203002B1F
:1026000008D02F4B9B6823F0F0027B689B682C4915
:1026100013438B60294B1B6803F007033A689A4207
:1026200010D2264B1B6823F0070224493B68134352
:102630000B60224B1B6803F007033A689A4201D0F3
:10264000012336E07B681B6803F00403002B08D0ED
:102650001B4B9B6823F4E0627B68DB6818491343DB
:102660008B607B681B6803F00803002B09D0144BB8
:102670009B6823F460527B681B69DB00104913439D
:102680008B6000F025F801460D4B9B681B0903F099
:102690000F030C4AD35C03F01F0321FA03F30A4A29
:1026A00013600A4B1B681846FDF7DEFF0346FB72FA
:1026B000FB7A18461037BD4680BD00BF002002409F
:1026C000001002405C4D00080000002004000020C3
:1026D00080B489B000AF0023FB610023BB613D4B98
:1026E0009B6803F00C033B613A4BDB6803F0030388
:1026F000FB603B69002B05D03B690C2B21D1FB68AB
:10270000012B1ED1334B1B6803F00803002B07D1AC
:10271000304BD3F894301B0A03F00F03FB6105E044
:102720002C4B1B681B0903F00F03FB612A4AFB6952
:1027300052F82330FB613B69002B0DD1FB69BB6173
:102740000AE03B69042B02D1244BBB6104E03B69E6
:10275000082B01D1224BBB613B690C2B33D11D4BA4
:10276000DB6803F00303BB60BB68022B02D0032BC2
:1027700003D005E0194B7B6105E0194B7B6102E05A
:10278000FB697B6100BF134BDB681B0903F0070388
:1027900001337B600F4BDB681B0A03F07F037A6910
:1027A00002FB03F27B68B2FBF3F37B61094BDB684E
:1027B0005B0E03F0030301335B003B607A693B6807
:1027C000B2FBF3F3BB61BB6918462437BD465DF825
:1027D000047B704700100240744D00080024F40090
:1027E00000127A0080B400AF034B1B681846BD4648
:1027F0005DF8047B704700BF0000002080B500AF8B
:10280000FFF7F0FF0146064B9B68DB0A03F0070366
:10281000044AD35C03F01F0321FA03F3184680BD7A
:10282000001002406C4D000880B483B000AF7860A7
:1028300039607B680F221A60124B9B6803F0030219
:102840007B685A600F4B9B6803F0F0027B689A60CC
:102850000C4B9B6803F4E0627B68DA60094B9B6871
:10286000DB0803F4E0627B681A61074B1B6803F026
:1028700007023B681A6000BF0C37BD465DF8047B59
:10288000704700BF001002400020024080B586B0B3
:1028900000AF786000233B612A4B9B6D03F08053AF
:1028A000002B03D0FFF7E8F9786114E0254B9B6D0E
:1028B000244A43F080539365224B9B6D03F0805371
:1028C000FB60FB68FFF7D8F978611E4B9B6D1D4AD2
:1028D00023F0805393657B69B3F5007F0BD17B6850
:1028E000802B19D97B68A02B02D902233B6113E00E
:1028F00001233B6110E07B68802B02D903233B61FD
:102900000AE07B68802B02D102233B6104E07B68F4
:10291000702B01D101233B610B4B1B6823F0070295
:1029200009493B6913430B60074B1B6803F007031E
:102930003A699A4201D0012300E000231846183773
:10294000BD4680BD001002400020024080B586B028
:1029500000AF78600023FB740023BB747B681B68A6
:1029600003F40063002B3FD07B685B6EB3F5800FF0
:102970001CD0B3F5800F02D8002B0ED01FE0B3F5AA
:10298000000F03D0B3F5400F1CD018E0854BDB6877
:10299000844A43F48033D36015E07B68043300211C
:1029A000184600F0B9FA0346FB740CE07B6820334C
:1029B0000021184600F0A0FB0346FB7403E001234E
:1029C000FB7400E000BFFB7C002B0BD1754BD3F8F0
:1029D000883023F440027B685B6E72491343C1F870
:1029E000883001E0FB7CBB747B681B6803F4805378
:1029F000002B3FD07B689B6EB3F1807F1CD0B3F17E
:102A0000807F02D8002B0ED01FE0B3F1007F03D0EF
:102A1000B3F1407F1CD018E0624BDB68614A43F49D
:102A20008033D36015E07B6804330021184600F042
:102A300073FA0346FB740CE07B68203300211846D0
:102A400000F05AFB0346FB7403E00123FB7400E033
:102A500000BFFB7C002B0BD1524BD3F8883023F006
:102A600040727B689B6E4F491343C1F8883001E088
:102A7000FB7CBB747B681B6803F40033002B00F005
:102A8000A08000237B74474B9B6D03F08053002B89
:102A900001D1012300E00023002B0DD0414B9B6DA1
:102AA000404A43F0805393653E4B9B6D03F0805347
:102AB000BB60BB6801237B743B4B1B683A4A43F401
:102AC00080731360FEF73CFCF86009E0FEF738FC09
:102AD0000246FB68D31A022B02D90323FB7405E0DC
:102AE000314B1B6803F48073002BEFD0FB7C002B71
:102AF0005CD12C4BD3F8903003F440737B617B693D
:102B0000002B1FD07B68D3F884307A699A4219D0A1
:102B1000244BD3F8903023F440737B61214BD3F8DE
:102B20009030204A43F48033C2F890301D4BD3F8E4
:102B300090301C4A23F48033C2F89030194A7B69E4
:102B4000C2F890307B6903F00103002B16D0FEF72A
:102B5000F7FBF8600BE0FEF7F3FB0246FB68D31AC5
:102B600041F28832934202D90323FB7406E00D4BF5
:102B7000D3F8903003F00203002BECD0FB7C002B49
:102B80000CD1084BD3F8903023F440727B68D3F813
:102B9000843004491343C1F8903009E0FB7CBB74D6
:102BA00006E000BF0010024000700040FB7CBB74D8
:102BB0007B7C012B05D19E4B9B6D9D4A23F080535E
:102BC00093657B681B6803F00103002B0AD0984BC8
:102BD000D3F8883023F003027B689B6B944913433E
:102BE000C1F888307B681B6803F00203002B0AD011
:102BF0008F4BD3F8883023F00C027B68DB6B8C4959
:102C00001343C1F888307B681B6803F00403002B72
:102C10000AD0874BD3F8883023F030027B681B6CD6
:102C200083491343C1F888307B681B6803F00803AD
:102C3000002B0AD07E4BD3F8883023F0C0027B688B
:102C40005B6C7B491343C1F888307B681B6803F0D9
:102C50001003002B0AD0764BD3F8883023F440724F
:102C60007B689B6C72491343C1F888307B681B6892
:102C700003F02003002B0AD06D4BD3F8883023F4E7
:102C800040627B68DB6C6A491343C1F888307B681B
:102C90001B6803F40073002B0AD0654BD3F888300F
:102CA00023F440227B68DB6D61491343C1F888300F
:102CB0007B681B6803F48063002B0AD05C4BD3F85D
:102CC000883023F440127B681B6E59491343C1F8C6
:102CD00088307B681B6803F04003002B0AD0544BFC
:102CE000D3F8883023F440527B681B6D504913435E
:102CF000C1F888307B681B6803F08003002B0AD082
:102D00004B4BD3F8883023F440427B685B6D4849D5
:102D10001343C1F888307B681B6803F48073002B71
:102D20000AD0434BD3F8883023F440327B689B6D44
:102D30003F491343C1F888307B681B6803F4005394
:102D4000002B28D03A4BD3F8883023F040627B68C0
:102D5000DB6E37491343C1F888307B68DB6EB3F113
:102D6000006F06D1324BDB68314A43F48013D360E5
:102D700011E07B68DB6EB3F1806F0CD17B680433AC
:102D80000121184600F0C8F80346FB74FB7C002BB9
:102D900001D0FB7CBB747B681B6803F40023002B11
:102DA00028D0234BD3F8883023F040627B681B6F18
:102DB0001F491343C1F888307B681B6FB3F1006F64
:102DC00006D11B4BDB681A4A43F48013D36011E031
:102DD0007B681B6FB3F1806F0CD17B6804330121DA
:102DE000184600F099F80346FB74FB7C002B01D0D9
:102DF000FB7CBB747B681B6803F48023002B2BD007
:102E00000B4BD3F8883023F040627B685B6F084936
:102E10001343C1F888307B685B6FB3F1006F09D151
:102E2000034BDB68024A43F48013D36014E000BF15
:102E3000001002407B685B6FB3F1806F0CD17B6840
:102E400004330121184600F067F80346FB74FB7C4D
:102E5000002B01D0FB7CBB747B681B6803F48043B0
:102E6000002B2FD02B4BD3F8883023F040527B68B7
:102E70009B6F28491343C1F888307B689B6FB3F17F
:102E8000805F0DD17B6804330221184600F044F8BE
:102E90000346FB74FB7C002B14D0FB7CBB7411E05D
:102EA0007B689B6FB3F1005F0CD17B6820330221FC
:102EB000184600F021F90346FB74FB7C002B01D07F
:102EC000FB7CBB747B681B6803F40043002B0AD0B7
:102ED000104BD3F8883023F080427B68DB6F0D49BC
:102EE0001343C1F888307B681B6803F48033002BE0
:102EF0000BD0084BD3F8883023F000427B68D3F81E
:102F0000803004491343C1F88830BB7C1846183719
:102F1000BD4680BD0010024080B584B000AF78602F
:102F200039600023FB73734BDB6803F00303002B52
:102F300018D0704BDB6803F003027B681B689A4271
:102F40000DD17B681B68002B09D06A4BDB681B091D
:102F500003F007035A1C7B685B689A4244D0012344
:102F6000FB7341E07B681B68022B0CD0032B13D052
:102F7000012B20D15F4B1B6803F00203002B1DD1F6
:102F80000123FB731AE05B4B1B6803F48063002B87
:102F900016D10123FB7313E0564B1B6803F4003377
:102FA000002B0FD1534B1B6803F48023002B09D156
:102FB0000123FB7306E00123FB7304E000BF02E082
:102FC00000BF00E000BFFB7B002B0DD1494BDB684D
:102FD00023F073027B6819687B685B68013B1B0107
:102FE0000B4344491343CB60FB7B002B7DD1414B0A
:102FF0001B68404A23F080631360FEF7A1F9B860B4
:1030000009E0FEF79DF90246BB68D31A022B02D9EC
:103010000323FB7305E0374B1B6803F00063002BB1
:10302000EFD1FB7B002B60D13B68002B11D1314BE2
:103030001B6923F41F3323F440737A6892681102EA
:103040007A68D268120952040A432A4913430B6171
:1030500027E03B68012B12D1264B1B6923F4C003E8
:1030600023F4FE437A68926811027A681269520862
:10307000013A52050A431F4913430B6111E01D4BEE
:103080001B6923F0C06323F4FE437A68926811023F
:103090007A6852695208013A52060A4315491343A5
:1030A0000B61144B1B68134A43F080631360FEF7F7
:1030B00047F9B86009E0FEF743F90246BB68D31A46
:1030C000022B02D90323FB7305E00A4B1B6803F0B4
:1030D0000063002BEFD0FB7B002B06D1054B1A6958
:1030E0007B689B69034913430B61FB7B18461037D0
:1030F000BD4680BD0010024080B584B000AF78604E
:1031000039600023FB73684BDB6803F00303002B7B
:1031100018D0654BDB6803F003027B681B689A429A
:103120000DD17B681B68002B09D05F4BDB681B0946
:1031300003F007035A1C7B685B689A4244D0012362
:10314000FB7341E07B681B68022B0CD0032B13D070
:10315000012B20D1544B1B6803F00203002B1DD11F
:103160000123FB731AE0504B1B6803F48063002BB0
:1031700016D10123FB7313E04B4B1B6803F40033A0
:10318000002B0FD1484B1B6803F48023002B09D17F
:103190000123FB7306E00123FB7304E000BF02E0A0
:1031A00000BF00E000BFFB7B002B0DD13E4BDB6876
:1031B00023F073027B6819687B685B68013B1B0125
:1031C0000B4339491343CB60FB7B002B67D1364B54
:1031D0001B68354A23F080531360FEF7B1F8B860DE
:1031E00009E0FEF7ADF80246BB68D31A022B02D9FC
:1031F0000323FB7305E02C4B1B6803F00053002BEB
:10320000EFD1FB7B002B4AD13B68002B11D1264B21
:103210005B6923F41F3323F440737A6892681102C8
:103220007A68D268120952040A431F4913434B615A
:1032300011E01D4B5B6923F0C06323F4FE437A6801
:10324000926811027A6812695208013A52060A43DA
:10325000154913434B61144B1B68134A43F08053C9
:103260001360FEF76DF8B86009E0FEF769F80246F2
:10327000BB68D31A022B02D90323FB7305E00A4B68
:103280001B6803F00053002BEFD0FB7B002B06D113
:10329000054B5A697B685B69034913434B61FB7BB0
:1032A00018461037BD4680BD0010024080B582B080
:1032B00000AF78607B68002B01D1012349E07B6877
:1032C00093F83D30DBB2002B06D17B68002283F8F7
:1032D0003C20786800F041F87B68022283F83D20AA
:1032E0007B681A687B6804331946104600F0F8F9C9
:1032F0007B68012283F848207B68012283F83E2006
:103300007B68012283F83F207B68012283F84020FC
:103310007B68012283F841207B68012283F84220E8
:103320007B68012283F843207B68012283F84420D4
:103330007B68012283F845207B68012283F84620C0
:103340007B68012283F847207B68012283F83D20B7
:10335000002318460837BD4680BD80B483B000AF57
:10336000786000BF0C37BD465DF8047B70470000F5
:1033700080B485B000AF78607B6893F83D30DBB2F5
:10338000012B01D001234FE07B68022283F83D200E
:103390007B681B68DA687B681B6842F00102DA60B0
:1033A0007B681B68234A93421DD07B681B68B3F17E
:1033B000804F18D07B681B681F4A934213D07B68EC
:1033C0001B681E4A93420ED07B681B681C4A9342BE
:1033D00009D07B681B681B4A934204D07B681B683A
:1033E000194A934215D17B681B689A68174B1340A2
:1033F000FB60FB68062B15D0FB68B3F5803F11D04E
:103400007B681B681A687B681B6842F001021A60BF
:1034100008E07B681B681A687B681B6842F0010241
:103420001A6000E000BF002318461437BD465DF85F
:10343000047B7047002C014000040040000800405D
:10344000000C004000340140004001400700010032
:1034500080B582B000AF78607B681B681B6903F0A1
:103460000203022B22D17B681B68DB6803F0020396
:10347000022B1BD17B681B686FF002021A617B680C
:1034800001221A777B681B689B6903F00303002BFA
:1034900003D0786800F005F905E0786800F0F7F8E7
:1034A000786800F008F97B6800221A777B681B684F
:1034B0001B6903F00403042B22D17B681B68DB68C3
:1034C00003F00403042B1BD17B681B686FF004021C
:1034D0001A617B6802221A777B681B689B6903F478
:1034E0004073002B03D0786800F0DBF805E07868C3
:1034F00000F0CDF8786800F0DEF87B6800221A77DB
:103500007B681B681B6903F00803082B22D17B68CA
:103510001B68DB6803F00803082B1BD17B681B6862
:103520006FF008021A617B6804221A777B681B68B7
:10353000DB6903F00303002B03D0786800F0B1F8D7
:1035400005E0786800F0A3F8786800F0B4F87B68CC
:1035500000221A777B681B681B6903F01003102B8D
:1035600022D17B681B68DB6803F01003102B1BD192
:103570007B681B686FF010021A617B6808221A775B
:103580007B681B68DB6903F44073002B03D0786809
:1035900000F087F805E0786800F079F8786800F0C6
:1035A0008AF87B6800221A777B681B681B6903F026
:1035B0000103012B0ED17B681B68DB6803F001035C
:1035C000012B07D17B681B686FF001021A617868D4
:1035D000FCF78CFF7B681B681B6903F08003802B62
:1035E0000ED17B681B68DB6803F08003802B07D15A
:1035F0007B681B686FF080021A61786800F014F92C
:103600007B681B681B6903F48073B3F5807F0ED160
:103610007B681B68DB6803F08003802B07D17B6825
:103620001B686FF480721A61786800F007F97B6894
:103630001B681B6903F04003402B0ED17B681B689D
:10364000DB6803F04003402B07D17B681B686FF0F9
:1036500040021A61786800F038F87B681B681B69C3
:1036600003F02003202B0ED17B681B68DB6803F07E
:103670002003202B07D17B681B686FF020021A61A2
:10368000786800F0C7F800BF0837BD4680BD80B439
:1036900083B000AF786000BF0C37BD465DF8047B97
:1036A000704780B483B000AF786000BF0C37BD4670
:1036B0005DF8047B704780B483B000AF786000BFD2
:1036C0000C37BD465DF8047B704780B483B000AF13
:1036D000786000BF0C37BD465DF8047B7047000082
:1036E00080B485B000AF786039607B681B68FB6090
:1036F0007B68404A934213D07B68B3F1804F0FD070
:103700007B683D4A93420BD07B683C4A934207D08A
:103710007B683B4A934203D07B683A4A934208D184
:10372000FB6823F07003FB603B685B68FA68134337
:10373000FB607B682F4A93421FD07B68B3F1804FB8
:103740001BD07B682C4A934217D07B682B4A93424C
:1037500013D07B682A4A93420FD07B68294A934250
:103760000BD07B68284A934207D07B68274A934254
:1037700003D07B68264A934208D1FB6823F4407348
:10378000FB603B68DB68FA681343FB60FB6823F06F
:1037900080023B685B691343FB607B68FA681A60D0
:1037A0003B689A687B68DA623B681A687B689A6251
:1037B0007B68104A93420FD07B68124A93420BD029
:1037C0007B68114A934207D07B68104A934203D02A
:1037D0007B680F4A934203D13B681A697B681A637E
:1037E0007B6801225A6100BF1437BD465DF8047B37
:1037F000704700BF002C014000040040000800405A
:10380000000C0040003401400040014000440140F1
:103810000048014080B483B000AF786000BF0C372F
:10382000BD465DF8047B704780B483B000AF78601C
:1038300000BF0C37BD465DF8047B704780B483B091
:1038400000AF786000BF0C37BD465DF8047B704761
:1038500080B485B000AF0346FB800023FB60B7F95E
:103860000630842B05D0B7F90620FB6813440333D8
:10387000FB60FB6818461437BD465DF8047B704753
:1038800080B500AF00F0DAFA0023184680BDF0B52D
:1038900089B004AF786039607B685B69002B20D009
:1038A0007B689B69002B1CD07B685C687B681D680B
:1038B0007B681E697B68B3F908301846FFF7C8FFBC
:1038C00001467B685B697A68926902920193009174
:1038D0003B6832462946204600F0EDF80346FB607F
:1038E0001CE07B685C687B681D687B681B699EB216
:1038F0007B68B3F908301846FFF7AAFF024607F1C4
:103900000C03019300923B6832462946204600F0A2
:103910002CF90346012B01D0002300E0FB68184678
:103920001437BD46F0BD80B584B000AF78607B68C9
:10393000FB60FB68002B01D0FB6800E00123184608
:1039400000F048FA002318461037BD4680BD80B409
:1039500083B000AF78607B6803F108027B685A602F
:103960007B684FF0FF329A607B6803F108027B6846
:10397000DA607B6803F108027B681A617B680022C9
:103980001A6000BF0C37BD465DF8047B704780B4F9
:1039900083B000AF78607B6800221A6100BF0C37EB
:1039A000BD465DF8047B704780B485B000AF786099
:1039B00039607B685B68FB603B68FA685A60FB684B
:1039C0009A683B689A60FB689B683A685A60FB6833
:1039D0003A689A603B687A681A617B681B685A1C6F
:1039E0007B681A6000BF1437BD465DF8047B7047E2
:1039F00080B485B000AF786039603B681B68BB60FD
:103A0000BB68B3F1FF3F03D17B681B69FB600CE02F
:103A10007B680833FB6002E0FB685B68FB60FB6867
:103A20005B681B68BA689A42F6D2FB685A683B68C2
:103A30005A603B685B683A689A603B68FA689A60CB
:103A4000FB683A685A603B687A681A617B681B6851
:103A50005A1C7B681A6000BF1437BD465DF8047BB2
:103A6000704780B485B000AF78607B681B69FB60ED
:103A70007B685B687A6892689A607B689B687A6802
:103A800052685A60FB685B687A689A4203D17B6827
:103A90009A68FB685A607B6800221A61FB681B68A1
:103AA0005A1EFB681A60FB681B6818461437BD462F
:103AB0005DF8047B704780B58EB004AFF860B960E4
:103AC0007A603B607B6B002B09D14FF0500383F38E
:103AD0001188BFF36F8FBFF34F8F3B62FEE7BB6B65
:103AE000002B09D14FF0500383F31188BFF36F8F80
:103AF000BFF34F8FFB61FEE754233B613B69542BBF
:103B000009D04FF0500383F31188BFF36F8FBFF3D9
:103B10004F8FBB61FEE73B69BB6B002B1ED07B6BFD
:103B2000002B1BD0BB6B7B627B6A7A6B1A637B6A50
:103B3000022283F85120002303937B6A029307F14A
:103B4000140301933B6B00933B687A68B968F8688B
:103B500000F050F8786A00F0D3F801E000237B61B0
:103B60007B6918462837BD4680BD80B58CB004AF50
:103B7000F860B9603B601346FB80FB889B001846E9
:103B800000F0B0FE78617B69002B0ED0542000F06D
:103B9000A9FEF861FB69002B03D0FB697A691A63FF
:103BA00005E0786900F060FF01E00023FB61FB693C
:103BB000002B17D0FB69002283F85120FA880023DC
:103BC0000393FB690293FB6A0193BB6A00933B6812
:103BD000B968F86800F00EF8F86900F091F8012370
:103BE000BB6102E04FF0FF33BB61BB691846203771
:103BF000BD4680BD80B588B000AFF860B9607A601E
:103C00003B603B6B1A6B7B6803F18043013B9B007D
:103C10001344BB61BB6923F00703BB61BB6903F0BD
:103C20000703002B09D04FF0500383F31188BFF333
:103C30006F8FBFF34F8F7B61FEE7BB68002B1FD0F8
:103C40000023FB6112E0BA68FB69134419783A6BF0
:103C5000FB69134434330A461A70BA68FB6913448B
:103C60001B78002B06D0FB690133FB61FB690F2B2E
:103C7000E9D900E000BF3B6B002283F8432003E05A
:103C80003B6B002283F83420BB6A062B01D9062344
:103C9000BB623B6BBA6ADA623B6BBA6A5A643B6BD3
:103CA00000229A643B6B04331846FFF770FE3B6BAF
:103CB00018331846FFF76BFE3B6B3A6B1A61BB6A11
:103CC000C3F107023B6B9A613B6B3A6B5A623B6BE9
:103CD0000022DA643B6B002283F850203A68F968CE
:103CE000B86900F0FDFB02463B6B1A60FB6A002BD3
:103CF00002D0FB6A3A6B1A6000BF2037BD4680BD18
:103D000080B582B000AF786000F010FD2A4B1B68D0
:103D10000133294A1360294B1B68002B09D1274A1C
:103D20007B681360244B1B68012B10D100F0B8FA9C
:103D30000DE0234B1B68002B09D1204B1B68DA6A6E
:103D40007B68DB6A9A4202D81C4A7B6813601D4B71
:103D50001B6801331B4A13607B68DB6A01229A40AF
:103D6000194B1B681343184A13607B68DA6A1346C1
:103D70009B0013449B00154A1A447B680433194680
:103D80001046FFF711FE00F0FFFC0D4B1B68002BE7
:103D90000ED00A4B1B68DA6A7B68DB6A9A4207D24C
:103DA0000B4B4FF080521A60BFF34F8FBFF36F8FF2
:103DB00000BF0837BD4680BD800300208002002080
:103DC0008C0300209C030020880300208402002034
:103DD00004ED00E080B584B000AF78600023FB60A4
:103DE0007B68002B16D0134B1B68002B09D04FF0BB
:103DF000500383F31188BFF36F8FBFF34F8FBB6006
:103E0000FEE700F079F80021786800F003FB00F08D
:103E100081F8F860FB68002B07D1074B4FF0805208
:103E20001A60BFF34F8FBFF36F8F00BF1037BD46CF
:103E300080BD00BFA803002004ED00E080B58AB07B
:103E400004AF0023BB6000237B603A46391D07F1B5
:103E500008031846FCF7BCF939687B68BA68029217
:103E600001930023009300230A461D491D48FFF7D4
:103E700022FE02461C4B1A601B4B1B68002B02D013
:103E800001237B6101E000237B617B69012B15D15C
:103E90004FF0500383F31188BFF36F8FBFF34F8F41
:103EA0003B61124B4FF0FF321A60114B01221A6036
:103EB000104B00221A6000F09BFB0DE07B69B3F110
:103EC000FF3F09D14FF0500383F31188BFF36F8F89
:103ED000BFF34F8FFB60FEE700BF1837BD4680BDC4
:103EE000544D000871420008A4030020A0030020E4
:103EF0008C0300208403002080B400AF044B1B68B7
:103F00000133034A136000BFBD465DF8047B704770
:103F1000A803002080B584B000AF0023FB6000231D
:103F2000BB60414B1B68002B09D14FF0500383F35A
:103F30001188BFF36F8FBFF34F8F3B60FEE700F038
:103F4000F5FB394B1B68013B374A1360364B1B6846
:103F5000002B61D1354B1B68002B5DD02EE0344B1C
:103F6000DB68DB68FB60FB6818331846FFF779FDF8
:103F7000FB6804331846FFF774FDFB68DB6A012217
:103F80009A402C4B1B6813432A4A1360FB68DA6A79
:103F900013469B0013449B00274A1A44FB680433D2
:103FA00019461046FFF700FDFB68DA6A234B1B68D1
:103FB000DB6A9A4202D3224B01221A601C4B1B6817
:103FC000002BCCD1FB68002B01D000F003FA1D4B75
:103FD0001B687B607B68002B10D000F037F803462D
:103FE000002B02D0164B01221A607B68013B7B60DC
:103FF0007B68002BF1D1134B00221A60104B1B6819
:10400000002B09D00123BB600F4B4FF080521A6088
:10401000BFF34F8FBFF36F8F00F0B6FBBB6818463E
:104020001037BD4680BD00BFA803002080030020DC
:10403000400300208803002084020020800200202A
:10404000940300209003002004ED00E080B586B0CA
:1040500000AF00237B614E4B1B68002B40F0878034
:104060004C4B1B6801333B614A4A3B6913603B6917
:10407000002B1FD1484B1B681B68002B09D04FF049
:10408000500383F31188BFF36F8FBFF34F8F3B60F3
:10409000FEE7414B1B68FB60404B1B683E4A1360C8
:1040A0003E4AFB6813603E4B1B6801333C4A136079
:1040B00000F090F93B4B1B683A699A4248D3364B63
:1040C0001B681B68002B04D1364B4FF0FF321A607F
:1040D0003EE0314B1B68DB68DB68BB60BB685B683C
:1040E0007B603A697B689A4203D22E4A7B681360F0
:1040F0002EE0BB6804331846FFF7B3FCBB689B6A2D
:10410000002B04D0BB6818331846FFF7AAFCBB6825
:10411000DB6A01229A40244B1B681343224A136036
:10412000BB68DA6A13469B0013449B001F4A1A447B
:10413000BB68043319461046FFF736FCBB68DA6AE1
:104140001B4B1B68DB6A9A42B9D301237B61B6E73C
:10415000174B1B68DA6A154913469B0013449B00F2
:104160000B441B68012B07D901237B6104E0114B31
:104170001B6801330F4A13600F4B1B68002B01D0E3
:1041800001237B617B6918461837BD4680BD00BF9F
:10419000A803002084030020380300203C030020F3
:1041A00098030020A0030020880300208402002040
:1041B00080020020900300209403002080B487B088
:1041C00000AF264B1B68002B03D0254B01221A6041
:1041D0003EE0234B00221A60224B1B68FB60FB6809
:1041E000B3FA83F3FB72FB7AC3F11F037B611E49B1
:1041F0007A6913469B0013449B000B441B68002BF9
:1042000009D14FF0500383F31188BFF36F8FBFF3D1
:104210004F8F7B60FEE77A6913469B0013449B0037
:10422000114A13443B613B695B685A683B695A60B9
:104230003B695A683B6908339A4204D13B695B6821
:104240005A683B695A603B695B68DB68074A1360E0
:1042500000BF1C37BD465DF8047B7047A8030020F3
:1042600094030020880300208402002080020020A4
:1042700080B582B000AF786000F052F8064B1B6842
:10428000012BF9D9054B4FF080521A60BFF34F8FC5
:10429000BFF36F8FF0E700BF8402002004ED00E061
:1042A00080B582B000AF00237B600CE07A681346D3
:1042B0009B0013449B00124A13441846FFF747FB28
:1042C0007B6801337B607B68062BEFD90D48FFF7D5
:1042D0003EFB0D48FFF73BFB0C48FFF738FB0C4853
:1042E000FFF735FB0B48FFF732FB0B4B054A1A6013
:1042F0000A4B054A1A6000BF0837BD4680BD00BFA3
:10430000840200201003002024030020400300202A
:10431000540300206C030020380300203C030020DD
:1043200080B582B000AF19E000F000FA0F4BDB68F7
:10433000DB687B607B6804331846FFF792FB0C4B0D
:104340001B68013B0A4A13600A4B1B68013B094A80
:10435000136000F019FA786800F00EF8054B1B683E
:10436000002BE1D100BF0837BD4680BD54030020BB
:10437000800300206803002080B584B000AF78601F
:104380007B6893F85130002B08D17B681B6B184673
:1043900000F06AFB786800F067FB17E07B6893F831
:1043A0005130012B03D1786800F05EFB0EE07B6892
:1043B00093F85130022B09D04FF0500383F311884A
:1043C000BFF36F8FBFF34F8FFB60FEE700BF103767
:1043D000BD4680BD80B483B000AF0C4B1B681B682A
:1043E000002B04D10A4B4FF0FF321A6008E0074B54
:1043F0001B68DB68DB687B607B685B68044A136072
:1044000000BF0C37BD465DF8047B704738030020C1
:10441000A003002080B584B000AF78603960294BDC
:104420001B68FB60284B1B6804331846FFF719FB19
:104430000346002B0BD1244B1B68DB6A012202FAD6
:1044400003F3DA43214B1B681340204A13607B6857
:10445000B3F1FF3F0AD13B68002B07D01A4B1B6812
:10446000043319461A48FFF79FFA26E0FA687B687A
:104470001344BB60144B1B68BA685A60BA68FB6887
:104480009A4209D2134B1A680F4B1B680433194622
:104490001046FFF7ADFA10E00F4B1A680A4B1B6885
:1044A000043319461046FFF7A3FA0C4B1B68BA6891
:1044B0009A4202D2094ABB68136000BF1037BD465A
:1044C00080BD00BF840300208002002088030020FC
:1044D0006C0300203C03002038030020A0030020D0
:1044E00080B485B000AFF860B9607A60FB68043BC7
:1044F000FB60FB684FF080721A60FB68043BFB6056
:10450000BB6823F00102FB681A60FB68043BFB6098
:104510000C4AFB681A60FB68143BFB607A68FB6816
:104520001A60FB68043BFB60FB686FF002021A60D4
:10453000FB68203BFB60FB6818461437BD465DF8FE
:10454000047B70474945000880B485B000AF002364
:104550007B60114B1B68B3F1FF3F09D04FF0500354
:1045600083F31188BFF36F8FBFF34F8FFB60FEE7BC
:104570004FF0500383F31188BFF36F8FBFF34F8F5A
:10458000BB6000BF7B68002BFCD000BF1437BD466A
:104590005DF8047B704700BF0C00002000000000A5
:1045A000074B19680868B0E8F04F80F30988BFF33B
:1045B0006F8F4FF0000080F311887047AFF30080D9
:1045C0008002002000BF00BF08480068006880F338
:1045D00008884FF0000080F3148862B661B6BFF31C
:1045E0004F8FBFF36F8F00DF00BF00BF08ED00E00B
:1045F00080B586B000AF444B1B68444A934209D152
:104600004FF0500383F31188BFF36F8FBFF34F8FC9
:104610003B61FEE73C4B1B683D4A934209D14FF09A
:10462000500383F31188BFF36F8FBFF34F8FFB608D
:10463000FEE7384B7B617B691B78DBB27B607B6973
:10464000FF221A707B691B78DBB2FB70FB78DBB250
:1046500003F05003DAB2304B1A70304B07221A6065
:1046600009E02E4B1B68013B2C4A1360FB78DBB240
:104670005B00DBB2FB70FB78DBB203F08003802BC6
:10468000EFD0264B1B68C3F10703042B09D04FF072
:10469000500383F31188BFF36F8FBFF34F8FBB605D
:1046A000FEE71E4B1B681B021C4A13601B4B1B685A
:1046B00003F4E063194A13607B68DAB27B691A700D
:1046C000174B1B68164A43F470031360144B1B68A6
:1046D000134A43F07043136000F0D6F8114B0022E8
:1046E0001A6000F0F5F8104B1B680F4A43F0404386
:1046F0001360FFF769FFFFF761FDFFF725FF002358
:1047000018461837BD4680BD00ED00E071C20F416C
:1047100070C20F4100E400E0AC030020B0030020B1
:1047200020ED00E00C00002034EF00E080B483B006
:1047300000AF4FF0500383F31188BFF36F8FBFF3C7
:104740004F8F7B600E4B1B6801330D4A13600C4B7F
:104750001B68012B0ED10B4B1B68DBB2002B09D061
:104760004FF0500383F31188BFF36F8FBFF34F8F68
:104770003B60FEE700BF0C37BD465DF8047B704729
:104780000C00002004ED00E080B483B000AF114BBA
:104790001B68002B09D14FF0500383F31188BFF33E
:1047A0006F8FBFF34F8F7B60FEE70A4B1B68013BA7
:1047B000084A1360074B1B68002B04D100233B60A1
:1047C0003B6883F3118800BF0C37BD465DF8047B5E
:1047D000704700BF0C000020000000000000000037
:1047E000EFF30980BFF36F8F154B1A681EF0100F9F
:1047F00008BF20ED108A20E9F04F10602DE9090074
:104800004FF0500080F31188BFF34F8FBFF36F8FCD
:10481000FFF7D4FC4FF0000080F3118809BC196841
:104820000868B0E8F04F1EF0100F08BFB0EC108A17
:1048300080F30988BFF36F8F704700BFAFF300802C
:104840008002002000BF00BF80B582B000AF4FF0F3
:10485000500383F31188BFF36F8FBFF34F8F7B60DB
:10486000FFF7F4FB0346002B03D0064B4FF08052BA
:104870001A6000233B603B6883F3118800BF083750
:10488000BD4680BD04ED00E080B400AF0B4B0022BC
:104890001A600B4B00221A600A4B1B680A4AA2FBE3
:1048A00003239B09094A013B1360044B07221A604A
:1048B00000BFBD465DF8047B704700BF10E000E01C
:1048C00018E000E000000020D34D621014E000E08A
:1048D000DFF80C00016841F470010160704700BF0F
:1048E00088ED00E080B58AB000AF78600023FB61FE
:1048F000FFF702FB574B1B68002B01D100F00CF9AE
:10490000554B1A687B681340002B40F08C807B6805
:10491000002B1CD008227B6813447B607B6803F06B
:104920000703002B13D07B6823F0070308337B6059
:104930007B6803F00703002B09D04FF0500383F38B
:104940001188BFF36F8FBFF34F8F7B61FEE77B68EA
:10495000002B68D0414B1B687A689A4263D8404B61
:104960003B623F4B1B687B6204E07B6A3B627B6A75
:104970001B687B627B6A5B687A689A4203D97B6AB0
:104980001B68002BF1D1334B1B687A6A9A424AD0DC
:104990003B6A1B6808221344FB617B6A1A683B6A06
:1049A0001A607B6A5A687B68D21A08235B009A42B5
:1049B0001ED97A6A7B681344BB61BB6903F00703A5
:1049C000002B09D04FF0500383F31188BFF36F8F92
:1049D000BFF34F8F3B61FEE77B6A5A687B68D21A50
:1049E000BB695A607B6A7A685A60B86900F0F6F869
:1049F0001A4B1A687B6A5B68D31A184A1360174B04
:104A00001A68184B1B689A4203D2144B1B68154A4C
:104A100013607B6A5A68104B1B681A437B6A5A60A2
:104A20007B6A00221A60FFF775FAFB6903F007033F
:104A3000002B09D04FF0500383F31188BFF36F8F21
:104A4000BFF34F8FFB60FEE7FB6918462837BD4672
:104A500080BD00BF740F0020800F0020780F002061
:104A60006C0F00207C0F002080B586B000AF78600E
:104A70007B687B617B68002B46D008235B427A69A8
:104A800013447B617B693B613B695A68204B1B681F
:104A90001340002B09D14FF0500383F31188BFF36B
:104AA0006F8FBFF34F8FFB60FEE73B691B68002BE6
:104AB00009D04FF0500383F31188BFF36F8FBFF31A
:104AC0004F8FBB60FEE73B695A68114B1B68134070
:104AD000002B19D03B691B68002B15D13B695A6824
:104AE0000B4B1B68DB431A403B695A60FFF704FA23
:104AF0003B695A68074B1B681344064A13603869C0
:104B000000F06CF8FFF706FA00BF1837BD4680BD0D
:104B1000800F0020780F002080B485B000AF40F6F1
:104B2000B833BB60274BFB60FB6803F00703002B27
:104B30000CD0FB680733FB60FB6823F00703FB60C6
:104B4000BA68FB68D31A1F4A1344BB60FB687B60DA
:104B50001D4A7B6813601C4B00225A607B68BA6850
:104B60001344FB600822FB689B1AFB60FB6823F080
:104B70000703FB60FB68154A1360144B1B68002297
:104B80005A60124B1B6800221A607B683B603B68CE
:104B9000FA68D21A3B685A600C4B1A683B681A6074
:104BA0003B685B680A4A13603B685B68094A1360AC
:104BB000094B4FF000421A6000BF1437BD465DF844
:104BC000047B7047B40300206C0F0020740F00209A
:104BD0007C0F0020780F0020800F002080B485B06B
:104BE00000AF7860284BFB6002E0FB681B68FB604D
:104BF000FB681B687A689A42F7D8FB68BB60FB6861
:104C00005B68BA6813447A689A4208D1FB685A68AC
:104C10007B685B681A44FB685A60FB687B607B6852
:104C2000BB607B685B68BA681A44FB681B689A4281
:104C300018D1FB681A68154B1B689A420DD07B6827
:104C40005A68FB681B685B681A447B685A60FB689B
:104C50001B681A687B681A6008E00C4B1A687B684E
:104C60001A6003E0FB681A687B681A60FA687B6860
:104C70009A4202D0FB687A681A6000BF1437BD46BA
:104C80005DF8047B704700BF6C0F0020740F00209C
:104C900070B50D4E0D4CA41BA4100025A54209D1E2
:104CA0000B4E0C4C00F020F8A41BA4100025A542CC
:104CB00005D170BD56F8253098470135EEE756F816
:104CC000253098470135F2E7EC4D0008EC4D00081F
:104CD000EC4D0008F04D000802440346934200D119
:104CE000704703F8011BF9E7F8B500BFF8BC08BC32
:104CF0009E467047F8B500BFF8BC08BC9E4670479A
:104D00005461736B30310000004D0008ED03000862
:104D10000000000000000000800000000000000013
:104D2000000000005461736B30320000244D000815
:104D30006104000800000000000000008000000086
:104D400000000000000000003031323334353637C7
:104D50003839000049444C450000000000000000C4
:104D6000000000000102030406070809000000001B
:104D700001020304A0860100400D0300801A060012
:104D800000350C0040420F0080841E0000093D00E9
:104D900000127A000024F40000366E010048E80199
:104DA000006CDC0200FE1467001D1447009D009C8F
:104DB000003F00FA1400005341980019485A095A5C
:104DC000005F00FC015F01FC00AF1404005BC01831
:104DD000815AC9005800C005005F004200F5006715
:0C4DE00000EA00AF00BF004600FF00EF3B
:044DEC00B501000805
:044DF0009101000825
:104DF40000093D001000000001000000AAAAAAAAB0
:04000005080007C127
:00000001FF
